{"contracts/FleekAutomationAVS.sol":{"FleekAutomationAVS":{"abi":[{"inputs":[{"internalType":"address","name":"avs_public_address","type":"address"}],"stateMutability":"nonpayable","type":"constructor"},{"inputs":[],"name":"ECDSAInvalidSignature","type":"error"},{"inputs":[{"internalType":"uint256","name":"length","type":"uint256"}],"name":"ECDSAInvalidSignatureLength","type":"error"},{"inputs":[{"internalType":"bytes32","name":"s","type":"bytes32"}],"name":"ECDSAInvalidSignatureS","type":"error"},{"anonymous":false,"inputs":[{"indexed":false,"internalType":"string","name":"fleek_url","type":"string"},{"indexed":false,"internalType":"uint256","name":"startTimestamp","type":"uint256"},{"indexed":false,"internalType":"uint32","name":"endTimestamp","type":"uint32"},{"indexed":false,"internalType":"uint256","name":"interval","type":"uint256"},{"indexed":false,"internalType":"address","name":"operator","type":"address"},{"indexed":false,"internalType":"uint256","name":"last_hit","type":"uint256"}],"name":"FleekAutomationCreated","type":"event"},{"inputs":[],"name":"AVS_PUBLIC_ADDRESS","outputs":[{"internalType":"address","name":"","type":"address"}],"stateMutability":"view","type":"function"},{"inputs":[{"internalType":"string","name":"","type":"string"}],"name":"UrlToSchedule","outputs":[{"internalType":"uint256","name":"startTimestamp","type":"uint256"},{"internalType":"uint256","name":"endTimestamp","type":"uint256"},{"internalType":"uint256","name":"time_interval","type":"uint256"},{"internalType":"address","name":"operator","type":"address"},{"internalType":"uint256","name":"last_hit","type":"uint256"}],"stateMutability":"view","type":"function"},{"inputs":[{"internalType":"string","name":"fleek_url","type":"string"},{"internalType":"uint256","name":"startTimestamp","type":"uint256"},{"internalType":"uint32","name":"endTimestamp","type":"uint32"},{"internalType":"uint256","name":"interval","type":"uint256"},{"internalType":"address","name":"operator","type":"address"}],"name":"fleek_automation_init","outputs":[],"stateMutability":"nonpayable","type":"function"},{"inputs":[{"internalType":"bytes","name":"signature","type":"bytes"},{"internalType":"string","name":"url","type":"string"},{"internalType":"uint64","name":"timestamp","type":"uint64"}],"name":"ping","outputs":[],"stateMutability":"nonpayable","type":"function"}],"devdoc":{"errors":{"ECDSAInvalidSignature()":[{"details":"The signature derives the `address(0)`."}],"ECDSAInvalidSignatureLength(uint256)":[{"details":"The signature has an invalid length."}],"ECDSAInvalidSignatureS(bytes32)":[{"details":"The signature has an S value that is in the upper half order."}]},"kind":"dev","methods":{},"version":1},"evm":{"bytecode":{"linkReferences":{},"object":"60803461007457601f6107f038819003918201601f19168301916001600160401b038311848410176100795780849260209460405283398101031261007457516001600160a01b0381169081900361007457600180546001600160a01b03191691909117905560405161076090816100908239f35b600080fd5b634e487b7160e01b600052604160045260246000fdfe6040608081526004908136101561001557600080fd5b600091823560e01c80637a2de6e61461046c5780638d0073741461043f578063b0e61162146101c45763f0e6c3bf1461004d57600080fd5b346101c05760a03660031901126101c057803567ffffffffffffffff81116101bc5761007c9036908301610590565b916024359260443563ffffffff81168091036101b8576001600160a01b03608435818116939192908490036101b45784516020816100ba81866105ae565b8b815203019020546101805780871015610145578451966100da886104f0565b87526020870190815261010a602086890193606435855260608a0196875260808a01978b895251928380926105ae565b8b81520301902096518755516001870155516002860155600385019151166bffffffffffffffffffffffff60a01b8254161790555191015580f35b845162461bcd60e51b81526020818801526015602482015274125b9d985b1a59081d1a5b59481a5b9d195c9d985b605a1b6044820152606490fd5b845162461bcd60e51b8152602081880152600e60248201526d416c72656164792065786973747360901b6044820152606490fd5b8780fd5b8580fd5b8380fd5b8280fd5b5090346101c05760603660031901126101c05781359067ffffffffffffffff9081831161043b573660238401121561043b5761020a602493369085818801359101610544565b918335818111610437576102219036908701610590565b604435918216918281036101b4578351948561023d81856105ae565b8a8152602097889103019020855190610255826104f0565b805482526001810154928883019384526002820154958884019687528b600160a01b600190039384600382015416606087015201549560808501968752895180918c820193846102a4916105ae565b9067ffffffffffffffff60c01b9060c01b16815203601719810182526008016102cd9082610522565b5190207f19457468657265756d205369676e6564204d6573736167653a0a3332000000008d52601c52603c8c2090610304916105d9565b610310919392936106a5565b80600154169116036104065784809151111591826103fa575b5050156103c45751905181018091116103a057601d1981018181116103b257821191821561038a575b50501561035d578480f35b5162461bcd60e51b815292830152600b908201526a125b9d985b1a59081a1a5d60aa1b6044820152606490fd5b909150601e82018092116103a057103880610352565b634e487b7160e01b8752601186528487fd5b634e487b7160e01b8852601187528588fd5b835162461bcd60e51b8152808801869052601181880152700496e76616c69642074696d657374616d7607c1b6044820152606490fd5b51101590508338610329565b855162461bcd60e51b8152808a01889052600c818a01526b2737ba1037b832b930ba37b960a11b6044820152606490fd5b8680fd5b8480fd5b50503461046857816003193601126104685760015490516001600160a01b039091168152602090f35b5080fd5b5090346101c05760203660031901126101c057813567ffffffffffffffff81116101bc57602060a0946104a56104b19336908701610590565b908451938480936105ae565b90815203019020805492600182015492600283015491600180881b03600385015416930154938151958652602086015284015260608301526080820152f35b60a0810190811067ffffffffffffffff82111761050c57604052565b634e487b7160e01b600052604160045260246000fd5b90601f8019910116810190811067ffffffffffffffff82111761050c57604052565b92919267ffffffffffffffff821161050c576040519161056e601f8201601f191660200184610522565b82948184528183011161058b578281602093846000960137010152565b600080fd5b9080601f8301121561058b578160206105ab93359101610544565b90565b9081519160005b8381106105c6575050016000815290565b80602080928401015181850152016105b5565b815191906041830361060a5761060392506020820151906060604084015193015160001a90610615565b9192909190565b505060009160029190565b91907f7fffffffffffffffffffffffffffffff5d576e7357a4501ddfe92f46681b20a0841161069957926020929160ff608095604051948552168484015260408301526060820152600092839182805260015afa1561068d5780516001600160a01b0381161561068457918190565b50809160019190565b604051903d90823e3d90fd5b50505060009160039190565b600481101561071457806106b7575050565b600181036106d15760405163f645eedf60e01b8152600490fd5b600281036106f25760405163fce698f760e01b815260048101839052602490fd5b6003146106fc5750565b602490604051906335e2f38360e21b82526004820152fd5b634e487b7160e01b600052602160045260246000fdfea26469706673582212208accc18537e62b2bc7ad8d21783299c4991a8f78f70949ebe5a3b64a64f894a764736f6c63430008140033","opcodes":"PUSH1 0x80 CALLVALUE PUSH2 0x74 JUMPI PUSH1 0x1F PUSH2 0x7F0 CODESIZE DUP2 SWAP1 SUB SWAP2 DUP3 ADD PUSH1 0x1F NOT AND DUP4 ADD SWAP2 PUSH1 0x1 PUSH1 0x1 PUSH1 0x40 SHL SUB DUP4 GT DUP5 DUP5 LT OR PUSH2 0x79 JUMPI DUP1 DUP5 SWAP3 PUSH1 0x20 SWAP5 PUSH1 0x40 MSTORE DUP4 CODECOPY DUP2 ADD SUB SLT PUSH2 0x74 JUMPI MLOAD PUSH1 0x1 PUSH1 0x1 PUSH1 0xA0 SHL SUB DUP2 AND SWAP1 DUP2 SWAP1 SUB PUSH2 0x74 JUMPI PUSH1 0x1 DUP1 SLOAD PUSH1 0x1 PUSH1 0x1 PUSH1 0xA0 SHL SUB NOT AND SWAP2 SWAP1 SWAP2 OR SWAP1 SSTORE PUSH1 0x40 MLOAD PUSH2 0x760 SWAP1 DUP2 PUSH2 0x90 DUP3 CODECOPY RETURN JUMPDEST PUSH1 0x0 DUP1 REVERT JUMPDEST PUSH4 0x4E487B71 PUSH1 0xE0 SHL PUSH1 0x0 MSTORE PUSH1 0x41 PUSH1 0x4 MSTORE PUSH1 0x24 PUSH1 0x0 REVERT INVALID PUSH1 0x40 PUSH1 0x80 DUP2 MSTORE PUSH1 0x4 SWAP1 DUP2 CALLDATASIZE LT ISZERO PUSH2 0x15 JUMPI PUSH1 0x0 DUP1 REVERT JUMPDEST PUSH1 0x0 SWAP2 DUP3 CALLDATALOAD PUSH1 0xE0 SHR DUP1 PUSH4 0x7A2DE6E6 EQ PUSH2 0x46C JUMPI DUP1 PUSH4 0x8D007374 EQ PUSH2 0x43F JUMPI DUP1 PUSH4 0xB0E61162 EQ PUSH2 0x1C4 JUMPI PUSH4 0xF0E6C3BF EQ PUSH2 0x4D JUMPI PUSH1 0x0 DUP1 REVERT JUMPDEST CALLVALUE PUSH2 0x1C0 JUMPI PUSH1 0xA0 CALLDATASIZE PUSH1 0x3 NOT ADD SLT PUSH2 0x1C0 JUMPI DUP1 CALLDATALOAD PUSH8 0xFFFFFFFFFFFFFFFF DUP2 GT PUSH2 0x1BC JUMPI PUSH2 0x7C SWAP1 CALLDATASIZE SWAP1 DUP4 ADD PUSH2 0x590 JUMP JUMPDEST SWAP2 PUSH1 0x24 CALLDATALOAD SWAP3 PUSH1 0x44 CALLDATALOAD PUSH4 0xFFFFFFFF DUP2 AND DUP1 SWAP2 SUB PUSH2 0x1B8 JUMPI PUSH1 0x1 PUSH1 0x1 PUSH1 0xA0 SHL SUB PUSH1 0x84 CALLDATALOAD DUP2 DUP2 AND SWAP4 SWAP2 SWAP3 SWAP1 DUP5 SWAP1 SUB PUSH2 0x1B4 JUMPI DUP5 MLOAD PUSH1 0x20 DUP2 PUSH2 0xBA DUP2 DUP7 PUSH2 0x5AE JUMP JUMPDEST DUP12 DUP2 MSTORE SUB ADD SWAP1 KECCAK256 SLOAD PUSH2 0x180 JUMPI DUP1 DUP8 LT ISZERO PUSH2 0x145 JUMPI DUP5 MLOAD SWAP7 PUSH2 0xDA DUP9 PUSH2 0x4F0 JUMP JUMPDEST DUP8 MSTORE PUSH1 0x20 DUP8 ADD SWAP1 DUP2 MSTORE PUSH2 0x10A PUSH1 0x20 DUP7 DUP10 ADD SWAP4 PUSH1 0x64 CALLDATALOAD DUP6 MSTORE PUSH1 0x60 DUP11 ADD SWAP7 DUP8 MSTORE PUSH1 0x80 DUP11 ADD SWAP8 DUP12 DUP10 MSTORE MLOAD SWAP3 DUP4 DUP1 SWAP3 PUSH2 0x5AE JUMP JUMPDEST DUP12 DUP2 MSTORE SUB ADD SWAP1 KECCAK256 SWAP7 MLOAD DUP8 SSTORE MLOAD PUSH1 0x1 DUP8 ADD SSTORE MLOAD PUSH1 0x2 DUP7 ADD SSTORE PUSH1 0x3 DUP6 ADD SWAP2 MLOAD AND PUSH12 0xFFFFFFFFFFFFFFFFFFFFFFFF PUSH1 0xA0 SHL DUP3 SLOAD AND OR SWAP1 SSTORE MLOAD SWAP2 ADD SSTORE DUP1 RETURN JUMPDEST DUP5 MLOAD PUSH3 0x461BCD PUSH1 0xE5 SHL DUP2 MSTORE PUSH1 0x20 DUP2 DUP9 ADD MSTORE PUSH1 0x15 PUSH1 0x24 DUP3 ADD MSTORE PUSH21 0x125B9D985B1A59081D1A5B59481A5B9D195C9D985B PUSH1 0x5A SHL PUSH1 0x44 DUP3 ADD MSTORE PUSH1 0x64 SWAP1 REVERT JUMPDEST DUP5 MLOAD PUSH3 0x461BCD PUSH1 0xE5 SHL DUP2 MSTORE PUSH1 0x20 DUP2 DUP9 ADD MSTORE PUSH1 0xE PUSH1 0x24 DUP3 ADD MSTORE PUSH14 0x416C726561647920657869737473 PUSH1 0x90 SHL PUSH1 0x44 DUP3 ADD MSTORE PUSH1 0x64 SWAP1 REVERT JUMPDEST DUP8 DUP1 REVERT JUMPDEST DUP6 DUP1 REVERT JUMPDEST DUP4 DUP1 REVERT JUMPDEST DUP3 DUP1 REVERT JUMPDEST POP SWAP1 CALLVALUE PUSH2 0x1C0 JUMPI PUSH1 0x60 CALLDATASIZE PUSH1 0x3 NOT ADD SLT PUSH2 0x1C0 JUMPI DUP2 CALLDATALOAD SWAP1 PUSH8 0xFFFFFFFFFFFFFFFF SWAP1 DUP2 DUP4 GT PUSH2 0x43B JUMPI CALLDATASIZE PUSH1 0x23 DUP5 ADD SLT ISZERO PUSH2 0x43B JUMPI PUSH2 0x20A PUSH1 0x24 SWAP4 CALLDATASIZE SWAP1 DUP6 DUP2 DUP9 ADD CALLDATALOAD SWAP2 ADD PUSH2 0x544 JUMP JUMPDEST SWAP2 DUP4 CALLDATALOAD DUP2 DUP2 GT PUSH2 0x437 JUMPI PUSH2 0x221 SWAP1 CALLDATASIZE SWAP1 DUP8 ADD PUSH2 0x590 JUMP JUMPDEST PUSH1 0x44 CALLDATALOAD SWAP2 DUP3 AND SWAP2 DUP3 DUP2 SUB PUSH2 0x1B4 JUMPI DUP4 MLOAD SWAP5 DUP6 PUSH2 0x23D DUP2 DUP6 PUSH2 0x5AE JUMP JUMPDEST DUP11 DUP2 MSTORE PUSH1 0x20 SWAP8 DUP9 SWAP2 SUB ADD SWAP1 KECCAK256 DUP6 MLOAD SWAP1 PUSH2 0x255 DUP3 PUSH2 0x4F0 JUMP JUMPDEST DUP1 SLOAD DUP3 MSTORE PUSH1 0x1 DUP2 ADD SLOAD SWAP3 DUP9 DUP4 ADD SWAP4 DUP5 MSTORE PUSH1 0x2 DUP3 ADD SLOAD SWAP6 DUP9 DUP5 ADD SWAP7 DUP8 MSTORE DUP12 PUSH1 0x1 PUSH1 0xA0 SHL PUSH1 0x1 SWAP1 SUB SWAP4 DUP5 PUSH1 0x3 DUP3 ADD SLOAD AND PUSH1 0x60 DUP8 ADD MSTORE ADD SLOAD SWAP6 PUSH1 0x80 DUP6 ADD SWAP7 DUP8 MSTORE DUP10 MLOAD DUP1 SWAP2 DUP13 DUP3 ADD SWAP4 DUP5 PUSH2 0x2A4 SWAP2 PUSH2 0x5AE JUMP JUMPDEST SWAP1 PUSH8 0xFFFFFFFFFFFFFFFF PUSH1 0xC0 SHL SWAP1 PUSH1 0xC0 SHL AND DUP2 MSTORE SUB PUSH1 0x17 NOT DUP2 ADD DUP3 MSTORE PUSH1 0x8 ADD PUSH2 0x2CD SWAP1 DUP3 PUSH2 0x522 JUMP JUMPDEST MLOAD SWAP1 KECCAK256 PUSH32 0x19457468657265756D205369676E6564204D6573736167653A0A333200000000 DUP14 MSTORE PUSH1 0x1C MSTORE PUSH1 0x3C DUP13 KECCAK256 SWAP1 PUSH2 0x304 SWAP2 PUSH2 0x5D9 JUMP JUMPDEST PUSH2 0x310 SWAP2 SWAP4 SWAP3 SWAP4 PUSH2 0x6A5 JUMP JUMPDEST DUP1 PUSH1 0x1 SLOAD AND SWAP2 AND SUB PUSH2 0x406 JUMPI DUP5 DUP1 SWAP2 MLOAD GT ISZERO SWAP2 DUP3 PUSH2 0x3FA JUMPI JUMPDEST POP POP ISZERO PUSH2 0x3C4 JUMPI MLOAD SWAP1 MLOAD DUP2 ADD DUP1 SWAP2 GT PUSH2 0x3A0 JUMPI PUSH1 0x1D NOT DUP2 ADD DUP2 DUP2 GT PUSH2 0x3B2 JUMPI DUP3 GT SWAP2 DUP3 ISZERO PUSH2 0x38A JUMPI JUMPDEST POP POP ISZERO PUSH2 0x35D JUMPI DUP5 DUP1 RETURN JUMPDEST MLOAD PUSH3 0x461BCD PUSH1 0xE5 SHL DUP2 MSTORE SWAP3 DUP4 ADD MSTORE PUSH1 0xB SWAP1 DUP3 ADD MSTORE PUSH11 0x125B9D985B1A59081A1A5D PUSH1 0xAA SHL PUSH1 0x44 DUP3 ADD MSTORE PUSH1 0x64 SWAP1 REVERT JUMPDEST SWAP1 SWAP2 POP PUSH1 0x1E DUP3 ADD DUP1 SWAP3 GT PUSH2 0x3A0 JUMPI LT CODESIZE DUP1 PUSH2 0x352 JUMP JUMPDEST PUSH4 0x4E487B71 PUSH1 0xE0 SHL DUP8 MSTORE PUSH1 0x11 DUP7 MSTORE DUP5 DUP8 REVERT JUMPDEST PUSH4 0x4E487B71 PUSH1 0xE0 SHL DUP9 MSTORE PUSH1 0x11 DUP8 MSTORE DUP6 DUP9 REVERT JUMPDEST DUP4 MLOAD PUSH3 0x461BCD PUSH1 0xE5 SHL DUP2 MSTORE DUP1 DUP9 ADD DUP7 SWAP1 MSTORE PUSH1 0x11 DUP2 DUP9 ADD MSTORE PUSH17 0x496E76616C69642074696D657374616D7 PUSH1 0x7C SHL PUSH1 0x44 DUP3 ADD MSTORE PUSH1 0x64 SWAP1 REVERT JUMPDEST MLOAD LT ISZERO SWAP1 POP DUP4 CODESIZE PUSH2 0x329 JUMP JUMPDEST DUP6 MLOAD PUSH3 0x461BCD PUSH1 0xE5 SHL DUP2 MSTORE DUP1 DUP11 ADD DUP9 SWAP1 MSTORE PUSH1 0xC DUP2 DUP11 ADD MSTORE PUSH12 0x2737BA1037B832B930BA37B9 PUSH1 0xA1 SHL PUSH1 0x44 DUP3 ADD MSTORE PUSH1 0x64 SWAP1 REVERT JUMPDEST DUP7 DUP1 REVERT JUMPDEST DUP5 DUP1 REVERT JUMPDEST POP POP CALLVALUE PUSH2 0x468 JUMPI DUP2 PUSH1 0x3 NOT CALLDATASIZE ADD SLT PUSH2 0x468 JUMPI PUSH1 0x1 SLOAD SWAP1 MLOAD PUSH1 0x1 PUSH1 0x1 PUSH1 0xA0 SHL SUB SWAP1 SWAP2 AND DUP2 MSTORE PUSH1 0x20 SWAP1 RETURN JUMPDEST POP DUP1 REVERT JUMPDEST POP SWAP1 CALLVALUE PUSH2 0x1C0 JUMPI PUSH1 0x20 CALLDATASIZE PUSH1 0x3 NOT ADD SLT PUSH2 0x1C0 JUMPI DUP2 CALLDATALOAD PUSH8 0xFFFFFFFFFFFFFFFF DUP2 GT PUSH2 0x1BC JUMPI PUSH1 0x20 PUSH1 0xA0 SWAP5 PUSH2 0x4A5 PUSH2 0x4B1 SWAP4 CALLDATASIZE SWAP1 DUP8 ADD PUSH2 0x590 JUMP JUMPDEST SWAP1 DUP5 MLOAD SWAP4 DUP5 DUP1 SWAP4 PUSH2 0x5AE JUMP JUMPDEST SWAP1 DUP2 MSTORE SUB ADD SWAP1 KECCAK256 DUP1 SLOAD SWAP3 PUSH1 0x1 DUP3 ADD SLOAD SWAP3 PUSH1 0x2 DUP4 ADD SLOAD SWAP2 PUSH1 0x1 DUP1 DUP9 SHL SUB PUSH1 0x3 DUP6 ADD SLOAD AND SWAP4 ADD SLOAD SWAP4 DUP2 MLOAD SWAP6 DUP7 MSTORE PUSH1 0x20 DUP7 ADD MSTORE DUP5 ADD MSTORE PUSH1 0x60 DUP4 ADD MSTORE PUSH1 0x80 DUP3 ADD MSTORE RETURN JUMPDEST PUSH1 0xA0 DUP2 ADD SWAP1 DUP2 LT PUSH8 0xFFFFFFFFFFFFFFFF DUP3 GT OR PUSH2 0x50C JUMPI PUSH1 0x40 MSTORE JUMP JUMPDEST PUSH4 0x4E487B71 PUSH1 0xE0 SHL PUSH1 0x0 MSTORE PUSH1 0x41 PUSH1 0x4 MSTORE PUSH1 0x24 PUSH1 0x0 REVERT JUMPDEST SWAP1 PUSH1 0x1F DUP1 NOT SWAP2 ADD AND DUP2 ADD SWAP1 DUP2 LT PUSH8 0xFFFFFFFFFFFFFFFF DUP3 GT OR PUSH2 0x50C JUMPI PUSH1 0x40 MSTORE JUMP JUMPDEST SWAP3 SWAP2 SWAP3 PUSH8 0xFFFFFFFFFFFFFFFF DUP3 GT PUSH2 0x50C JUMPI PUSH1 0x40 MLOAD SWAP2 PUSH2 0x56E PUSH1 0x1F DUP3 ADD PUSH1 0x1F NOT AND PUSH1 0x20 ADD DUP5 PUSH2 0x522 JUMP JUMPDEST DUP3 SWAP5 DUP2 DUP5 MSTORE DUP2 DUP4 ADD GT PUSH2 0x58B JUMPI DUP3 DUP2 PUSH1 0x20 SWAP4 DUP5 PUSH1 0x0 SWAP7 ADD CALLDATACOPY ADD ADD MSTORE JUMP JUMPDEST PUSH1 0x0 DUP1 REVERT JUMPDEST SWAP1 DUP1 PUSH1 0x1F DUP4 ADD SLT ISZERO PUSH2 0x58B JUMPI DUP2 PUSH1 0x20 PUSH2 0x5AB SWAP4 CALLDATALOAD SWAP2 ADD PUSH2 0x544 JUMP JUMPDEST SWAP1 JUMP JUMPDEST SWAP1 DUP2 MLOAD SWAP2 PUSH1 0x0 JUMPDEST DUP4 DUP2 LT PUSH2 0x5C6 JUMPI POP POP ADD PUSH1 0x0 DUP2 MSTORE SWAP1 JUMP JUMPDEST DUP1 PUSH1 0x20 DUP1 SWAP3 DUP5 ADD ADD MLOAD DUP2 DUP6 ADD MSTORE ADD PUSH2 0x5B5 JUMP JUMPDEST DUP2 MLOAD SWAP2 SWAP1 PUSH1 0x41 DUP4 SUB PUSH2 0x60A JUMPI PUSH2 0x603 SWAP3 POP PUSH1 0x20 DUP3 ADD MLOAD SWAP1 PUSH1 0x60 PUSH1 0x40 DUP5 ADD MLOAD SWAP4 ADD MLOAD PUSH1 0x0 BYTE SWAP1 PUSH2 0x615 JUMP JUMPDEST SWAP2 SWAP3 SWAP1 SWAP2 SWAP1 JUMP JUMPDEST POP POP PUSH1 0x0 SWAP2 PUSH1 0x2 SWAP2 SWAP1 JUMP JUMPDEST SWAP2 SWAP1 PUSH32 0x7FFFFFFFFFFFFFFFFFFFFFFFFFFFFFFF5D576E7357A4501DDFE92F46681B20A0 DUP5 GT PUSH2 0x699 JUMPI SWAP3 PUSH1 0x20 SWAP3 SWAP2 PUSH1 0xFF PUSH1 0x80 SWAP6 PUSH1 0x40 MLOAD SWAP5 DUP6 MSTORE AND DUP5 DUP5 ADD MSTORE PUSH1 0x40 DUP4 ADD MSTORE PUSH1 0x60 DUP3 ADD MSTORE PUSH1 0x0 SWAP3 DUP4 SWAP2 DUP3 DUP1 MSTORE PUSH1 0x1 GAS STATICCALL ISZERO PUSH2 0x68D JUMPI DUP1 MLOAD PUSH1 0x1 PUSH1 0x1 PUSH1 0xA0 SHL SUB DUP2 AND ISZERO PUSH2 0x684 JUMPI SWAP2 DUP2 SWAP1 JUMP JUMPDEST POP DUP1 SWAP2 PUSH1 0x1 SWAP2 SWAP1 JUMP JUMPDEST PUSH1 0x40 MLOAD SWAP1 RETURNDATASIZE SWAP1 DUP3 RETURNDATACOPY RETURNDATASIZE SWAP1 REVERT JUMPDEST POP POP POP PUSH1 0x0 SWAP2 PUSH1 0x3 SWAP2 SWAP1 JUMP JUMPDEST PUSH1 0x4 DUP2 LT ISZERO PUSH2 0x714 JUMPI DUP1 PUSH2 0x6B7 JUMPI POP POP JUMP JUMPDEST PUSH1 0x1 DUP2 SUB PUSH2 0x6D1 JUMPI PUSH1 0x40 MLOAD PUSH4 0xF645EEDF PUSH1 0xE0 SHL DUP2 MSTORE PUSH1 0x4 SWAP1 REVERT JUMPDEST PUSH1 0x2 DUP2 SUB PUSH2 0x6F2 JUMPI PUSH1 0x40 MLOAD PUSH4 0xFCE698F7 PUSH1 0xE0 SHL DUP2 MSTORE PUSH1 0x4 DUP2 ADD DUP4 SWAP1 MSTORE PUSH1 0x24 SWAP1 REVERT JUMPDEST PUSH1 0x3 EQ PUSH2 0x6FC JUMPI POP JUMP JUMPDEST PUSH1 0x24 SWAP1 PUSH1 0x40 MLOAD SWAP1 PUSH4 0x35E2F383 PUSH1 0xE2 SHL DUP3 MSTORE PUSH1 0x4 DUP3 ADD MSTORE REVERT JUMPDEST PUSH4 0x4E487B71 PUSH1 0xE0 SHL PUSH1 0x0 MSTORE PUSH1 0x21 PUSH1 0x4 MSTORE PUSH1 0x24 PUSH1 0x0 REVERT INVALID LOG2 PUSH5 0x6970667358 0x22 SLT KECCAK256 DUP11 0xCC 0xC1 DUP6 CALLDATACOPY 0xE6 0x2B 0x2B 0xC7 0xAD DUP14 0x21 PUSH25 0x3299C4991A8F78F70949EBE5A3B64A64F894A764736F6C6343 STOP ADDMOD EQ STOP CALLER "},"gasEstimates":{"creation":{"codeDepositCost":"377600","executionCost":"infinite","totalCost":"infinite"},"external":{"AVS_PUBLIC_ADDRESS()":"2315","UrlToSchedule(string)":"infinite","fleek_automation_init(string,uint256,uint32,uint256,address)":"infinite","ping(bytes,string,uint64)":"infinite"}},"methodIdentifiers":{"AVS_PUBLIC_ADDRESS()":"8d007374","UrlToSchedule(string)":"7a2de6e6","fleek_automation_init(string,uint256,uint32,uint256,address)":"f0e6c3bf","ping(bytes,string,uint64)":"b0e61162"}},"storageLayout":{"storage":[{"astId":1861,"contract":"contracts/FleekAutomationAVS.sol:FleekAutomationAVS","label":"UrlToSchedule","offset":0,"slot":"0","type":"t_mapping(t_string_memory_ptr,t_struct(Schedule)1856_storage)"},{"astId":1863,"contract":"contracts/FleekAutomationAVS.sol:FleekAutomationAVS","label":"AVS_PUBLIC_ADDRESS","offset":0,"slot":"1","type":"t_address"}],"types":{"t_address":{"encoding":"inplace","label":"address","numberOfBytes":"20"},"t_mapping(t_string_memory_ptr,t_struct(Schedule)1856_storage)":{"encoding":"mapping","key":"t_string_memory_ptr","label":"mapping(string => struct FleekAutomationAVS.Schedule)","numberOfBytes":"32","value":"t_struct(Schedule)1856_storage"},"t_string_memory_ptr":{"encoding":"bytes","label":"string","numberOfBytes":"32"},"t_struct(Schedule)1856_storage":{"encoding":"inplace","label":"struct FleekAutomationAVS.Schedule","members":[{"astId":1847,"contract":"contracts/FleekAutomationAVS.sol:FleekAutomationAVS","label":"startTimestamp","offset":0,"slot":"0","type":"t_uint256"},{"astId":1849,"contract":"contracts/FleekAutomationAVS.sol:FleekAutomationAVS","label":"endTimestamp","offset":0,"slot":"1","type":"t_uint256"},{"astId":1851,"contract":"contracts/FleekAutomationAVS.sol:FleekAutomationAVS","label":"time_interval","offset":0,"slot":"2","type":"t_uint256"},{"astId":1853,"contract":"contracts/FleekAutomationAVS.sol:FleekAutomationAVS","label":"operator","offset":0,"slot":"3","type":"t_address"},{"astId":1855,"contract":"contracts/FleekAutomationAVS.sol:FleekAutomationAVS","label":"last_hit","offset":0,"slot":"4","type":"t_uint256"}],"numberOfBytes":"160"},"t_uint256":{"encoding":"inplace","label":"uint256","numberOfBytes":"32"}}},"userdoc":{"kind":"user","methods":{},"version":1}}}}