{
  "_format": "hh-sol-artifact-1",
  "contractName": "FleekAutomationAVS",
  "sourceName": "contracts/FleekAutomationAVS.sol",
  "abi": [
    {
      "inputs": [
        {
          "internalType": "address",
          "name": "avs_public_address",
          "type": "address"
        }
      ],
      "stateMutability": "nonpayable",
      "type": "constructor"
    },
    {
      "inputs": [],
      "name": "ECDSAInvalidSignature",
      "type": "error"
    },
    {
      "inputs": [
        {
          "internalType": "uint256",
          "name": "length",
          "type": "uint256"
        }
      ],
      "name": "ECDSAInvalidSignatureLength",
      "type": "error"
    },
    {
      "inputs": [
        {
          "internalType": "bytes32",
          "name": "s",
          "type": "bytes32"
        }
      ],
      "name": "ECDSAInvalidSignatureS",
      "type": "error"
    },
    {
      "anonymous": false,
      "inputs": [
        {
          "indexed": false,
          "internalType": "string",
          "name": "fleek_url",
          "type": "string"
        },
        {
          "indexed": false,
          "internalType": "uint256",
          "name": "startTimestamp",
          "type": "uint256"
        },
        {
          "indexed": false,
          "internalType": "uint32",
          "name": "endTimestamp",
          "type": "uint32"
        },
        {
          "indexed": false,
          "internalType": "uint256",
          "name": "interval",
          "type": "uint256"
        },
        {
          "indexed": false,
          "internalType": "address",
          "name": "operator",
          "type": "address"
        },
        {
          "indexed": false,
          "internalType": "uint256",
          "name": "last_hit",
          "type": "uint256"
        }
      ],
      "name": "FleekAutomationCreated",
      "type": "event"
    },
    {
      "inputs": [],
      "name": "AVS_PUBLIC_ADDRESS",
      "outputs": [
        {
          "internalType": "address",
          "name": "",
          "type": "address"
        }
      ],
      "stateMutability": "view",
      "type": "function"
    },
    {
      "inputs": [
        {
          "internalType": "string",
          "name": "",
          "type": "string"
        }
      ],
      "name": "UrlToSchedule",
      "outputs": [
        {
          "internalType": "uint256",
          "name": "startTimestamp",
          "type": "uint256"
        },
        {
          "internalType": "uint256",
          "name": "endTimestamp",
          "type": "uint256"
        },
        {
          "internalType": "uint256",
          "name": "time_interval",
          "type": "uint256"
        },
        {
          "internalType": "address",
          "name": "operator",
          "type": "address"
        },
        {
          "internalType": "uint256",
          "name": "last_hit",
          "type": "uint256"
        }
      ],
      "stateMutability": "view",
      "type": "function"
    },
    {
      "inputs": [
        {
          "internalType": "string",
          "name": "fleek_url",
          "type": "string"
        },
        {
          "internalType": "uint256",
          "name": "startTimestamp",
          "type": "uint256"
        },
        {
          "internalType": "uint32",
          "name": "endTimestamp",
          "type": "uint32"
        },
        {
          "internalType": "uint256",
          "name": "interval",
          "type": "uint256"
        },
        {
          "internalType": "address",
          "name": "operator",
          "type": "address"
        }
      ],
      "name": "fleek_automation_init",
      "outputs": [],
      "stateMutability": "nonpayable",
      "type": "function"
    },
    {
      "inputs": [
        {
          "internalType": "bytes",
          "name": "signature",
          "type": "bytes"
        },
        {
          "internalType": "string",
          "name": "url",
          "type": "string"
        },
        {
          "internalType": "uint64",
          "name": "timestamp",
          "type": "uint64"
        }
      ],
      "name": "ping",
      "outputs": [],
      "stateMutability": "nonpayable",
      "type": "function"
    },
    {
      "inputs": [
        {
          "internalType": "string",
          "name": "url",
          "type": "string"
        },
        {
          "internalType": "uint256",
          "name": "timestamp",
          "type": "uint256"
        },
        {
          "internalType": "bytes",
          "name": "signature",
          "type": "bytes"
        }
      ],
      "name": "verifySignature",
      "outputs": [
        {
          "internalType": "address",
          "name": "",
          "type": "address"
        }
      ],
      "stateMutability": "view",
      "type": "function"
    }
  ],
  "bytecode": "0x60803461007457601f61091838819003918201601f19168301916001600160401b038311848410176100795780849260209460405283398101031261007457516001600160a01b0381169081900361007457600180546001600160a01b03191691909117905560405161088890816100908239f35b600080fd5b634e487b7160e01b600052604160045260246000fdfe604060808152600436101561001357600080fd5b60003560e01c80637a2de6e6146105255780638d007374146104fc578063b0e611621461028a578063f0e6c3bf146100c65763fb7bab5e1461005457600080fd5b346100c15760603660031901126100c15767ffffffffffffffff906004358281116100c15761008790369060040161060a565b916044359081116100c1576020926100a66100b092369060040161060a565b9060243590610684565b90516001600160a01b039091168152f35b600080fd5b50346100c15760a03660031901126100c15760043567ffffffffffffffff81116100c1576100f890369060040161060a565b6044359063ffffffff821682036100c1576084356001600160a01b03811681036100c15763ffffffff8316602435101561024e579160e09163ffffffff93857f078907774ee990da631bc1ddfefde0a08e567ec14c6cce5a0e76cbca89f3cee19651610163816105b6565b602435815286851660208201526064358282015260018060a01b0383166060820152602435608082015260046080835160208188516101a58183858d01610661565b810160008152030190209280518455602081015160018501558481015160028501556003840160018060a01b036060830151166bffffffffffffffffffffffff60a01b8254161790550151910155805195869460c08652610215855180968160c08a015260208a8a019101610661565b60243560208701521690840152606435606084015260018060a01b0316608083015260243560a0830152601f80199101168101030190a1005b835162461bcd60e51b8152602060048201526015602482015274125b9d985b1a59081d1a5b59481a5b9d195c9d985b605a1b6044820152606490fd5b50346100c15760603660031901126100c15767ffffffffffffffff906004358281116100c1576102be90369060040161060a565b9060249283358181116100c1576102d990369060040161060a565b604435918216918281036100c15783519482519260209687818184019661030181838a610661565b81016000815203019020865191610317836105b6565b81548352600182015493898401948552876002840154978a8601988952600160a01b60019003948560038201541660608801526004015497608087019889528c8c5191818392830180958951809261036e92610661565b83019167ffffffffffffffff60c01b9060c01b16908201520360088101825260280161039a90826105e8565b5190207f19457468657265756d205369676e6564204d6573736167653a0a333200000000600052601c526103cd92610684565b60015482169116036104ca5784809151111591826104be575b50501561048757519051810180911161045d57601d198101818111610472578211918215610447575b50501561041857005b606492600b91519262461bcd60e51b845260048401528201526a125b9d985b1a59081a1a5d60aa1b6044820152fd5b909150601e820180921161045d5710388061040f565b84634e487b7160e01b60005260116004526000fd5b85634e487b7160e01b60005260116004526000fd5b835162461bcd60e51b815260048101869052601181880152700496e76616c69642074696d657374616d7607c1b6044820152606490fd5b511015905083386103e6565b855162461bcd60e51b815260048101889052600c818a01526b2737ba1037b832b930ba37b960a11b6044820152606490fd5b50346100c15760003660031901126100c15760015490516001600160a01b039091168152602090f35b50346100c15760203660031901126100c1576004359067ffffffffffffffff82116100c157610571602061055f60a094369060040161060a565b81845193828580945193849201610661565b81016000815203019020908154916001810154916002820154906004600180881b03600385015416930154938151958652602086015284015260608301526080820152f35b60a0810190811067ffffffffffffffff8211176105d257604052565b634e487b7160e01b600052604160045260246000fd5b90601f8019910116810190811067ffffffffffffffff8211176105d257604052565b81601f820112156100c15780359067ffffffffffffffff82116105d2576040519261063f601f8401601f1916602001856105e8565b828452602083830101116100c157816000926020809301838601378301015290565b60005b8381106106745750506000910152565b8181015183820152602001610664565b916106fe926106f5926106c160408051809360206106ab8184019788815193849201610661565b82019060208201520360208101845201826105e8565b5190207f19457468657265756d205369676e6564204d6573736167653a0a333200000000600052601c52603c600020610701565b909291926107cd565b90565b81519190604183036107325761072b92506020820151906060604084015193015160001a9061073d565b9192909190565b505060009160029190565b91907f7fffffffffffffffffffffffffffffff5d576e7357a4501ddfe92f46681b20a084116107c157926020929160ff608095604051948552168484015260408301526060820152600092839182805260015afa156107b55780516001600160a01b038116156107ac57918190565b50809160019190565b604051903d90823e3d90fd5b50505060009160039190565b600481101561083c57806107df575050565b600181036107f95760405163f645eedf60e01b8152600490fd5b6002810361081a5760405163fce698f760e01b815260048101839052602490fd5b6003146108245750565b602490604051906335e2f38360e21b82526004820152fd5b634e487b7160e01b600052602160045260246000fdfea264697066735822122013b9eac67538aad27b87000c7f331a7a0ad67520ab7c1fb0a214772db2a8782764736f6c63430008140033",
  "linkReferences": {},
  "deployedLinkReferences": {}
}